{
  "_format": "hh-sol-artifact-1",
  "contractName": "NFileT",
  "sourceName": "contracts/NFileT.sol",
  "abi": [
    {
      "inputs": [],
      "stateMutability": "nonpayable",
      "type": "constructor"
    },
    {
      "anonymous": false,
      "inputs": [
        {
          "indexed": true,
          "internalType": "address",
          "name": "account",
          "type": "address"
        },
        {
          "indexed": true,
          "internalType": "address",
          "name": "operator",
          "type": "address"
        },
        {
          "indexed": false,
          "internalType": "bool",
          "name": "approved",
          "type": "bool"
        }
      ],
      "name": "ApprovalForAll",
      "type": "event"
    },
    {
      "anonymous": false,
      "inputs": [
        {
          "indexed": false,
          "internalType": "address",
          "name": "_receiver",
          "type": "address"
        },
        {
          "indexed": false,
          "internalType": "uint256",
          "name": "_id",
          "type": "uint256"
        },
        {
          "indexed": false,
          "internalType": "uint256",
          "name": "_amount",
          "type": "uint256"
        }
      ],
      "name": "Minted",
      "type": "event"
    },
    {
      "anonymous": false,
      "inputs": [
        {
          "indexed": true,
          "internalType": "address",
          "name": "previousOwner",
          "type": "address"
        },
        {
          "indexed": true,
          "internalType": "address",
          "name": "newOwner",
          "type": "address"
        }
      ],
      "name": "OwnershipTransferred",
      "type": "event"
    },
    {
      "anonymous": false,
      "inputs": [
        {
          "indexed": true,
          "internalType": "address",
          "name": "operator",
          "type": "address"
        },
        {
          "indexed": true,
          "internalType": "address",
          "name": "from",
          "type": "address"
        },
        {
          "indexed": true,
          "internalType": "address",
          "name": "to",
          "type": "address"
        },
        {
          "indexed": false,
          "internalType": "uint256[]",
          "name": "ids",
          "type": "uint256[]"
        },
        {
          "indexed": false,
          "internalType": "uint256[]",
          "name": "values",
          "type": "uint256[]"
        }
      ],
      "name": "TransferBatch",
      "type": "event"
    },
    {
      "anonymous": false,
      "inputs": [
        {
          "indexed": true,
          "internalType": "address",
          "name": "operator",
          "type": "address"
        },
        {
          "indexed": true,
          "internalType": "address",
          "name": "from",
          "type": "address"
        },
        {
          "indexed": true,
          "internalType": "address",
          "name": "to",
          "type": "address"
        },
        {
          "indexed": false,
          "internalType": "uint256",
          "name": "id",
          "type": "uint256"
        },
        {
          "indexed": false,
          "internalType": "uint256",
          "name": "value",
          "type": "uint256"
        }
      ],
      "name": "TransferSingle",
      "type": "event"
    },
    {
      "anonymous": false,
      "inputs": [
        {
          "indexed": false,
          "internalType": "string",
          "name": "value",
          "type": "string"
        },
        {
          "indexed": true,
          "internalType": "uint256",
          "name": "id",
          "type": "uint256"
        }
      ],
      "name": "URI",
      "type": "event"
    },
    {
      "inputs": [],
      "name": "AUDIO",
      "outputs": [
        {
          "internalType": "uint256",
          "name": "",
          "type": "uint256"
        }
      ],
      "stateMutability": "view",
      "type": "function"
    },
    {
      "inputs": [],
      "name": "DEFAULT_FILE",
      "outputs": [
        {
          "internalType": "uint256",
          "name": "",
          "type": "uint256"
        }
      ],
      "stateMutability": "view",
      "type": "function"
    },
    {
      "inputs": [],
      "name": "IMAGE",
      "outputs": [
        {
          "internalType": "uint256",
          "name": "",
          "type": "uint256"
        }
      ],
      "stateMutability": "view",
      "type": "function"
    },
    {
      "inputs": [],
      "name": "VIDEO",
      "outputs": [
        {
          "internalType": "uint256",
          "name": "",
          "type": "uint256"
        }
      ],
      "stateMutability": "view",
      "type": "function"
    },
    {
      "inputs": [
        {
          "internalType": "address",
          "name": "account",
          "type": "address"
        },
        {
          "internalType": "uint256",
          "name": "id",
          "type": "uint256"
        }
      ],
      "name": "balanceOf",
      "outputs": [
        {
          "internalType": "uint256",
          "name": "",
          "type": "uint256"
        }
      ],
      "stateMutability": "view",
      "type": "function"
    },
    {
      "inputs": [
        {
          "internalType": "address[]",
          "name": "accounts",
          "type": "address[]"
        },
        {
          "internalType": "uint256[]",
          "name": "ids",
          "type": "uint256[]"
        }
      ],
      "name": "balanceOfBatch",
      "outputs": [
        {
          "internalType": "uint256[]",
          "name": "",
          "type": "uint256[]"
        }
      ],
      "stateMutability": "view",
      "type": "function"
    },
    {
      "inputs": [
        {
          "internalType": "address",
          "name": "account",
          "type": "address"
        },
        {
          "internalType": "address",
          "name": "operator",
          "type": "address"
        }
      ],
      "name": "isApprovedForAll",
      "outputs": [
        {
          "internalType": "bool",
          "name": "",
          "type": "bool"
        }
      ],
      "stateMutability": "view",
      "type": "function"
    },
    {
      "inputs": [
        {
          "internalType": "address",
          "name": "_receiver",
          "type": "address"
        },
        {
          "internalType": "uint256",
          "name": "_id",
          "type": "uint256"
        },
        {
          "internalType": "uint256",
          "name": "_amount",
          "type": "uint256"
        }
      ],
      "name": "mint",
      "outputs": [
        {
          "internalType": "bool",
          "name": "",
          "type": "bool"
        }
      ],
      "stateMutability": "nonpayable",
      "type": "function"
    },
    {
      "inputs": [],
      "name": "owner",
      "outputs": [
        {
          "internalType": "address",
          "name": "",
          "type": "address"
        }
      ],
      "stateMutability": "view",
      "type": "function"
    },
    {
      "inputs": [],
      "name": "renounceOwnership",
      "outputs": [],
      "stateMutability": "nonpayable",
      "type": "function"
    },
    {
      "inputs": [
        {
          "internalType": "address",
          "name": "from",
          "type": "address"
        },
        {
          "internalType": "address",
          "name": "to",
          "type": "address"
        },
        {
          "internalType": "uint256[]",
          "name": "ids",
          "type": "uint256[]"
        },
        {
          "internalType": "uint256[]",
          "name": "amounts",
          "type": "uint256[]"
        },
        {
          "internalType": "bytes",
          "name": "data",
          "type": "bytes"
        }
      ],
      "name": "safeBatchTransferFrom",
      "outputs": [],
      "stateMutability": "nonpayable",
      "type": "function"
    },
    {
      "inputs": [
        {
          "internalType": "address",
          "name": "from",
          "type": "address"
        },
        {
          "internalType": "address",
          "name": "to",
          "type": "address"
        },
        {
          "internalType": "uint256",
          "name": "id",
          "type": "uint256"
        },
        {
          "internalType": "uint256",
          "name": "amount",
          "type": "uint256"
        },
        {
          "internalType": "bytes",
          "name": "data",
          "type": "bytes"
        }
      ],
      "name": "safeTransferFrom",
      "outputs": [],
      "stateMutability": "nonpayable",
      "type": "function"
    },
    {
      "inputs": [
        {
          "internalType": "address",
          "name": "operator",
          "type": "address"
        },
        {
          "internalType": "bool",
          "name": "approved",
          "type": "bool"
        }
      ],
      "name": "setApprovalForAll",
      "outputs": [],
      "stateMutability": "nonpayable",
      "type": "function"
    },
    {
      "inputs": [
        {
          "internalType": "bytes4",
          "name": "interfaceId",
          "type": "bytes4"
        }
      ],
      "name": "supportsInterface",
      "outputs": [
        {
          "internalType": "bool",
          "name": "",
          "type": "bool"
        }
      ],
      "stateMutability": "view",
      "type": "function"
    },
    {
      "inputs": [
        {
          "internalType": "address",
          "name": "newOwner",
          "type": "address"
        }
      ],
      "name": "transferOwnership",
      "outputs": [],
      "stateMutability": "nonpayable",
      "type": "function"
    },
    {
      "inputs": [
        {
          "internalType": "uint256",
          "name": "",
          "type": "uint256"
        }
      ],
      "name": "uri",
      "outputs": [
        {
          "internalType": "string",
          "name": "",
          "type": "string"
        }
      ],
      "stateMutability": "view",
      "type": "function"
    }
  ],
  "bytecode": "0x60806040523480156200001157600080fd5b50604051806060016040528060298152602001620031c7602991396200003d816200006460201b60201c565b506200005e620000526200008060201b60201c565b6200008860201b60201c565b62000263565b80600290805190602001906200007c9291906200014e565b5050565b600033905090565b6000600360009054906101000a900473ffffffffffffffffffffffffffffffffffffffff16905081600360006101000a81548173ffffffffffffffffffffffffffffffffffffffff021916908373ffffffffffffffffffffffffffffffffffffffff1602179055508173ffffffffffffffffffffffffffffffffffffffff168173ffffffffffffffffffffffffffffffffffffffff167f8be0079c531659141344cd1fd0a4f28419497f9722a3daafe3b4186f6b6457e060405160405180910390a35050565b8280546200015c90620001fe565b90600052602060002090601f016020900481019282620001805760008555620001cc565b82601f106200019b57805160ff1916838001178555620001cc565b82800160010185558215620001cc579182015b82811115620001cb578251825591602001919060010190620001ae565b5b509050620001db9190620001df565b5090565b5b80821115620001fa576000816000905550600101620001e0565b5090565b600060028204905060018216806200021757607f821691505b602082108114156200022e576200022d62000234565b5b50919050565b7f4e487b7100000000000000000000000000000000000000000000000000000000600052602260045260246000fd5b612f5480620002736000396000f3fe608060405234801561001057600080fd5b50600436106100ff5760003560e01c80634e1273f411610097578063a22cb46511610066578063a22cb465146102b0578063e985e9c5146102cc578063f242432a146102fc578063f2fde38b14610318576100ff565b80634e1273f41461023a578063715018a61461026a578063881e6895146102745780638da5cb5b14610292576100ff565b80630e89341c116100d35780630e89341c146101a0578063156e29f6146101d0578063227a378f146102005780632eb2c2d61461021e576100ff565b8062fdd58e1461010457806301ffc9a7146101345780630506eb401461016457806305f115e914610182575b600080fd5b61011e60048036038101906101199190611ec0565b610334565b60405161012b9190612667565b60405180910390f35b61014e60048036038101906101499190611fb7565b6103fd565b60405161015b919061248a565b60405180910390f35b61016c6104df565b6040516101799190612667565b60405180910390f35b61018a6104e4565b6040516101979190612667565b60405180910390f35b6101ba60048036038101906101b59190612009565b6104e9565b6040516101c791906124a5565b60405180910390f35b6101ea60048036038101906101e59190611efc565b61057d565b6040516101f7919061248a565b60405180910390f35b61020861065c565b6040516102159190612667565b60405180910390f35b61023860048036038101906102339190611d36565b610661565b005b610254600480360381019061024f9190611f4b565b610702565b6040516102619190612431565b60405180910390f35b6102726108b3565b005b61027c61093b565b6040516102899190612667565b60405180910390f35b61029a610940565b6040516102a7919061231d565b60405180910390f35b6102ca60048036038101906102c59190611e84565b61096a565b005b6102e660048036038101906102e19190611cfa565b610980565b6040516102f3919061248a565b60405180910390f35b61031660048036038101906103119190611df5565b610a14565b005b610332600480360381019061032d9190611cd1565b610ab5565b005b60008073ffffffffffffffffffffffffffffffffffffffff168373ffffffffffffffffffffffffffffffffffffffff1614156103a5576040517f08c379a000000000000000000000000000000000000000000000000000000000815260040161039c90612507565b60405180910390fd5b60008083815260200190815260200160002060008473ffffffffffffffffffffffffffffffffffffffff1673ffffffffffffffffffffffffffffffffffffffff16815260200190815260200160002054905092915050565b60007fd9b67a26000000000000000000000000000000000000000000000000000000007bffffffffffffffffffffffffffffffffffffffffffffffffffffffff1916827bffffffffffffffffffffffffffffffffffffffffffffffffffffffff191614806104c857507f0e89341c000000000000000000000000000000000000000000000000000000007bffffffffffffffffffffffffffffffffffffffffffffffffffffffff1916827bffffffffffffffffffffffffffffffffffffffffffffffffffffffff1916145b806104d857506104d782610bad565b5b9050919050565b600381565b600281565b6060600280546104f8906128d6565b80601f0160208091040260200160405190810160405280929190818152602001828054610524906128d6565b80156105715780601f1061054657610100808354040283529160200191610571565b820191906000526020600020905b81548152906001019060200180831161055457829003601f168201915b50505050509050919050565b6000610587610c17565b73ffffffffffffffffffffffffffffffffffffffff166105a5610940565b73ffffffffffffffffffffffffffffffffffffffff16146105fb576040517f08c379a00000000000000000000000000000000000000000000000000000000081526004016105f2906125c7565b60405180910390fd5b61061684848460405180602001604052806000815250610c1f565b7f25b428dfde728ccfaddad7e29e4ac23c24ed7fd1a6e3e3f91894a9a073f5dfff848484604051610649939291906123fa565b60405180910390a1600190509392505050565b600181565b610669610c17565b73ffffffffffffffffffffffffffffffffffffffff168573ffffffffffffffffffffffffffffffffffffffff1614806106af57506106ae856106a9610c17565b610980565b5b6106ee576040517f08c379a00000000000000000000000000000000000000000000000000000000081526004016106e590612587565b60405180910390fd5b6106fb8585858585610dd0565b5050505050565b60608151835114610748576040517f08c379a000000000000000000000000000000000000000000000000000000000815260040161073f90612607565b60405180910390fd5b6000835167ffffffffffffffff81111561078b577f4e487b7100000000000000000000000000000000000000000000000000000000600052604160045260246000fd5b6040519080825280602002602001820160405280156107b95781602001602082028036833780820191505090505b50905060005b84518110156108a857610852858281518110610804577f4e487b7100000000000000000000000000000000000000000000000000000000600052603260045260246000fd5b6020026020010151858381518110610845577f4e487b7100000000000000000000000000000000000000000000000000000000600052603260045260246000fd5b6020026020010151610334565b82828151811061088b577f4e487b7100000000000000000000000000000000000000000000000000000000600052603260045260246000fd5b602002602001018181525050806108a190612939565b90506107bf565b508091505092915050565b6108bb610c17565b73ffffffffffffffffffffffffffffffffffffffff166108d9610940565b73ffffffffffffffffffffffffffffffffffffffff161461092f576040517f08c379a0000000000000000000000000000000000000000000000000000000008152600401610926906125c7565b60405180910390fd5b610939600061113e565b565b600081565b6000600360009054906101000a900473ffffffffffffffffffffffffffffffffffffffff16905090565b61097c610975610c17565b8383611204565b5050565b6000600160008473ffffffffffffffffffffffffffffffffffffffff1673ffffffffffffffffffffffffffffffffffffffff16815260200190815260200160002060008373ffffffffffffffffffffffffffffffffffffffff1673ffffffffffffffffffffffffffffffffffffffff16815260200190815260200160002060009054906101000a900460ff16905092915050565b610a1c610c17565b73ffffffffffffffffffffffffffffffffffffffff168573ffffffffffffffffffffffffffffffffffffffff161480610a625750610a6185610a5c610c17565b610980565b5b610aa1576040517f08c379a0000000000000000000000000000000000000000000000000000000008152600401610a9890612547565b60405180910390fd5b610aae8585858585611371565b5050505050565b610abd610c17565b73ffffffffffffffffffffffffffffffffffffffff16610adb610940565b73ffffffffffffffffffffffffffffffffffffffff1614610b31576040517f08c379a0000000000000000000000000000000000000000000000000000000008152600401610b28906125c7565b60405180910390fd5b600073ffffffffffffffffffffffffffffffffffffffff168173ffffffffffffffffffffffffffffffffffffffff161415610ba1576040517f08c379a0000000000000000000000000000000000000000000000000000000008152600401610b9890612527565b60405180910390fd5b610baa8161113e565b50565b60007f01ffc9a7000000000000000000000000000000000000000000000000000000007bffffffffffffffffffffffffffffffffffffffffffffffffffffffff1916827bffffffffffffffffffffffffffffffffffffffffffffffffffffffff1916149050919050565b600033905090565b600073ffffffffffffffffffffffffffffffffffffffff168473ffffffffffffffffffffffffffffffffffffffff161415610c8f576040517f08c379a0000000000000000000000000000000000000000000000000000000008152600401610c8690612647565b60405180910390fd5b6000610c99610c17565b90506000610ca68561160d565b90506000610cb38561160d565b9050610cc4836000898585896116d3565b8460008088815260200190815260200160002060008973ffffffffffffffffffffffffffffffffffffffff1673ffffffffffffffffffffffffffffffffffffffff1681526020019081526020016000206000828254610d2391906127ca565b925050819055508673ffffffffffffffffffffffffffffffffffffffff16600073ffffffffffffffffffffffffffffffffffffffff168473ffffffffffffffffffffffffffffffffffffffff167fc3d58168c5ae7397731d063d5bbf3d657854427343f4c083240f7aacaa2d0f628989604051610da1929190612682565b60405180910390a4610db8836000898585896116db565b610dc7836000898989896116e3565b50505050505050565b8151835114610e14576040517f08c379a0000000000000000000000000000000000000000000000000000000008152600401610e0b90612627565b60405180910390fd5b600073ffffffffffffffffffffffffffffffffffffffff168473ffffffffffffffffffffffffffffffffffffffff161415610e84576040517f08c379a0000000000000000000000000000000000000000000000000000000008152600401610e7b90612567565b60405180910390fd5b6000610e8e610c17565b9050610e9e8187878787876116d3565b60005b845181101561109b576000858281518110610ee5577f4e487b7100000000000000000000000000000000000000000000000000000000600052603260045260246000fd5b602002602001015190506000858381518110610f2a577f4e487b7100000000000000000000000000000000000000000000000000000000600052603260045260246000fd5b60200260200101519050600080600084815260200190815260200160002060008b73ffffffffffffffffffffffffffffffffffffffff1673ffffffffffffffffffffffffffffffffffffffff16815260200190815260200160002054905081811015610fcb576040517f08c379a0000000000000000000000000000000000000000000000000000000008152600401610fc2906125a7565b60405180910390fd5b81810360008085815260200190815260200160002060008c73ffffffffffffffffffffffffffffffffffffffff1673ffffffffffffffffffffffffffffffffffffffff168152602001908152602001600020819055508160008085815260200190815260200160002060008b73ffffffffffffffffffffffffffffffffffffffff1673ffffffffffffffffffffffffffffffffffffffff168152602001908152602001600020600082825461108091906127ca565b925050819055505050508061109490612939565b9050610ea1565b508473ffffffffffffffffffffffffffffffffffffffff168673ffffffffffffffffffffffffffffffffffffffff168273ffffffffffffffffffffffffffffffffffffffff167f4a39dc06d4c0dbc64b70af90fd698a233a518aa5d07e595d983b8c0526c8f7fb8787604051611112929190612453565b60405180910390a46111288187878787876116db565b6111368187878787876118ca565b505050505050565b6000600360009054906101000a900473ffffffffffffffffffffffffffffffffffffffff16905081600360006101000a81548173ffffffffffffffffffffffffffffffffffffffff021916908373ffffffffffffffffffffffffffffffffffffffff1602179055508173ffffffffffffffffffffffffffffffffffffffff168173ffffffffffffffffffffffffffffffffffffffff167f8be0079c531659141344cd1fd0a4f28419497f9722a3daafe3b4186f6b6457e060405160405180910390a35050565b8173ffffffffffffffffffffffffffffffffffffffff168373ffffffffffffffffffffffffffffffffffffffff161415611273576040517f08c379a000000000000000000000000000000000000000000000000000000000815260040161126a906125e7565b60405180910390fd5b80600160008573ffffffffffffffffffffffffffffffffffffffff1673ffffffffffffffffffffffffffffffffffffffff16815260200190815260200160002060008473ffffffffffffffffffffffffffffffffffffffff1673ffffffffffffffffffffffffffffffffffffffff16815260200190815260200160002060006101000a81548160ff0219169083151502179055508173ffffffffffffffffffffffffffffffffffffffff168373ffffffffffffffffffffffffffffffffffffffff167f17307eab39ab6107e8899845ad3d59bd9653f200f220920489ca2b5937696c3183604051611364919061248a565b60405180910390a3505050565b600073ffffffffffffffffffffffffffffffffffffffff168473ffffffffffffffffffffffffffffffffffffffff1614156113e1576040517f08c379a00000000000000000000000000000000000000000000000000000000081526004016113d890612567565b60405180910390fd5b60006113eb610c17565b905060006113f88561160d565b905060006114058561160d565b90506114158389898585896116d3565b600080600088815260200190815260200160002060008a73ffffffffffffffffffffffffffffffffffffffff1673ffffffffffffffffffffffffffffffffffffffff168152602001908152602001600020549050858110156114ac576040517f08c379a00000000000000000000000000000000000000000000000000000000081526004016114a3906125a7565b60405180910390fd5b85810360008089815260200190815260200160002060008b73ffffffffffffffffffffffffffffffffffffffff1673ffffffffffffffffffffffffffffffffffffffff168152602001908152602001600020819055508560008089815260200190815260200160002060008a73ffffffffffffffffffffffffffffffffffffffff1673ffffffffffffffffffffffffffffffffffffffff168152602001908152602001600020600082825461156191906127ca565b925050819055508773ffffffffffffffffffffffffffffffffffffffff168973ffffffffffffffffffffffffffffffffffffffff168573ffffffffffffffffffffffffffffffffffffffff167fc3d58168c5ae7397731d063d5bbf3d657854427343f4c083240f7aacaa2d0f628a8a6040516115de929190612682565b60405180910390a46115f4848a8a86868a6116db565b611602848a8a8a8a8a6116e3565b505050505050505050565b60606000600167ffffffffffffffff811115611652577f4e487b7100000000000000000000000000000000000000000000000000000000600052604160045260246000fd5b6040519080825280602002602001820160405280156116805781602001602082028036833780820191505090505b50905082816000815181106116be577f4e487b7100000000000000000000000000000000000000000000000000000000600052603260045260246000fd5b60200260200101818152505080915050919050565b505050505050565b505050505050565b6117028473ffffffffffffffffffffffffffffffffffffffff16611ab1565b156118c2578373ffffffffffffffffffffffffffffffffffffffff1663f23a6e6187878686866040518663ffffffff1660e01b81526004016117489594939291906123a0565b602060405180830381600087803b15801561176257600080fd5b505af192505050801561179357506040513d601f19601f820116820180604052508101906117909190611fe0565b60015b6118395761179f612a0f565b806308c379a014156117fc57506117b4612e2c565b806117bf57506117fe565b806040517f08c379a00000000000000000000000000000000000000000000000000000000081526004016117f391906124a5565b60405180910390fd5b505b6040517f08c379a0000000000000000000000000000000000000000000000000000000008152600401611830906124c7565b60405180910390fd5b63f23a6e6160e01b7bffffffffffffffffffffffffffffffffffffffffffffffffffffffff1916817bffffffffffffffffffffffffffffffffffffffffffffffffffffffff1916146118c0576040517f08c379a00000000000000000000000000000000000000000000000000000000081526004016118b7906124e7565b60405180910390fd5b505b505050505050565b6118e98473ffffffffffffffffffffffffffffffffffffffff16611ab1565b15611aa9578373ffffffffffffffffffffffffffffffffffffffff1663bc197c8187878686866040518663ffffffff1660e01b815260040161192f959493929190612338565b602060405180830381600087803b15801561194957600080fd5b505af192505050801561197a57506040513d601f19601f820116820180604052508101906119779190611fe0565b60015b611a2057611986612a0f565b806308c379a014156119e3575061199b612e2c565b806119a657506119e5565b806040517f08c379a00000000000000000000000000000000000000000000000000000000081526004016119da91906124a5565b60405180910390fd5b505b6040517f08c379a0000000000000000000000000000000000000000000000000000000008152600401611a17906124c7565b60405180910390fd5b63bc197c8160e01b7bffffffffffffffffffffffffffffffffffffffffffffffffffffffff1916817bffffffffffffffffffffffffffffffffffffffffffffffffffffffff191614611aa7576040517f08c379a0000000000000000000000000000000000000000000000000000000008152600401611a9e906124e7565b60405180910390fd5b505b505050505050565b6000808273ffffffffffffffffffffffffffffffffffffffff163b119050919050565b6000611ae7611ae2846126d0565b6126ab565b90508083825260208201905082856020860282011115611b0657600080fd5b60005b85811015611b365781611b1c8882611bea565b845260208401935060208301925050600181019050611b09565b5050509392505050565b6000611b53611b4e846126fc565b6126ab565b90508083825260208201905082856020860282011115611b7257600080fd5b60005b85811015611ba25781611b888882611cbc565b845260208401935060208301925050600181019050611b75565b5050509392505050565b6000611bbf611bba84612728565b6126ab565b905082815260208101848484011115611bd757600080fd5b611be2848285612894565b509392505050565b600081359050611bf981612ec2565b92915050565b600082601f830112611c1057600080fd5b8135611c20848260208601611ad4565b91505092915050565b600082601f830112611c3a57600080fd5b8135611c4a848260208601611b40565b91505092915050565b600081359050611c6281612ed9565b92915050565b600081359050611c7781612ef0565b92915050565b600081519050611c8c81612ef0565b92915050565b600082601f830112611ca357600080fd5b8135611cb3848260208601611bac565b91505092915050565b600081359050611ccb81612f07565b92915050565b600060208284031215611ce357600080fd5b6000611cf184828501611bea565b91505092915050565b60008060408385031215611d0d57600080fd5b6000611d1b85828601611bea565b9250506020611d2c85828601611bea565b9150509250929050565b600080600080600060a08688031215611d4e57600080fd5b6000611d5c88828901611bea565b9550506020611d6d88828901611bea565b945050604086013567ffffffffffffffff811115611d8a57600080fd5b611d9688828901611c29565b935050606086013567ffffffffffffffff811115611db357600080fd5b611dbf88828901611c29565b925050608086013567ffffffffffffffff811115611ddc57600080fd5b611de888828901611c92565b9150509295509295909350565b600080600080600060a08688031215611e0d57600080fd5b6000611e1b88828901611bea565b9550506020611e2c88828901611bea565b9450506040611e3d88828901611cbc565b9350506060611e4e88828901611cbc565b925050608086013567ffffffffffffffff811115611e6b57600080fd5b611e7788828901611c92565b9150509295509295909350565b60008060408385031215611e9757600080fd5b6000611ea585828601611bea565b9250506020611eb685828601611c53565b9150509250929050565b60008060408385031215611ed357600080fd5b6000611ee185828601611bea565b9250506020611ef285828601611cbc565b9150509250929050565b600080600060608486031215611f1157600080fd5b6000611f1f86828701611bea565b9350506020611f3086828701611cbc565b9250506040611f4186828701611cbc565b9150509250925092565b60008060408385031215611f5e57600080fd5b600083013567ffffffffffffffff811115611f7857600080fd5b611f8485828601611bff565b925050602083013567ffffffffffffffff811115611fa157600080fd5b611fad85828601611c29565b9150509250929050565b600060208284031215611fc957600080fd5b6000611fd784828501611c68565b91505092915050565b600060208284031215611ff257600080fd5b600061200084828501611c7d565b91505092915050565b60006020828403121561201b57600080fd5b600061202984828501611cbc565b91505092915050565b600061203e83836122ff565b60208301905092915050565b61205381612820565b82525050565b600061206482612769565b61206e8185612797565b935061207983612759565b8060005b838110156120aa5781516120918882612032565b975061209c8361278a565b92505060018101905061207d565b5085935050505092915050565b6120c081612832565b82525050565b60006120d182612774565b6120db81856127a8565b93506120eb8185602086016128a3565b6120f481612a31565b840191505092915050565b600061210a8261277f565b61211481856127b9565b93506121248185602086016128a3565b61212d81612a31565b840191505092915050565b60006121456034836127b9565b915061215082612a4f565b604082019050919050565b60006121686028836127b9565b915061217382612a9e565b604082019050919050565b600061218b602b836127b9565b915061219682612aed565b604082019050919050565b60006121ae6026836127b9565b91506121b982612b3c565b604082019050919050565b60006121d16029836127b9565b91506121dc82612b8b565b604082019050919050565b60006121f46025836127b9565b91506121ff82612bda565b604082019050919050565b60006122176032836127b9565b915061222282612c29565b604082019050919050565b600061223a602a836127b9565b915061224582612c78565b604082019050919050565b600061225d6020836127b9565b915061226882612cc7565b602082019050919050565b60006122806029836127b9565b915061228b82612cf0565b604082019050919050565b60006122a36029836127b9565b91506122ae82612d3f565b604082019050919050565b60006122c66028836127b9565b91506122d182612d8e565b604082019050919050565b60006122e96021836127b9565b91506122f482612ddd565b604082019050919050565b6123088161288a565b82525050565b6123178161288a565b82525050565b6000602082019050612332600083018461204a565b92915050565b600060a08201905061234d600083018861204a565b61235a602083018761204a565b818103604083015261236c8186612059565b905081810360608301526123808185612059565b9050818103608083015261239481846120c6565b90509695505050505050565b600060a0820190506123b5600083018861204a565b6123c2602083018761204a565b6123cf604083018661230e565b6123dc606083018561230e565b81810360808301526123ee81846120c6565b90509695505050505050565b600060608201905061240f600083018661204a565b61241c602083018561230e565b612429604083018461230e565b949350505050565b6000602082019050818103600083015261244b8184612059565b905092915050565b6000604082019050818103600083015261246d8185612059565b905081810360208301526124818184612059565b90509392505050565b600060208201905061249f60008301846120b7565b92915050565b600060208201905081810360008301526124bf81846120ff565b905092915050565b600060208201905081810360008301526124e081612138565b9050919050565b600060208201905081810360008301526125008161215b565b9050919050565b600060208201905081810360008301526125208161217e565b9050919050565b60006020820190508181036000830152612540816121a1565b9050919050565b60006020820190508181036000830152612560816121c4565b9050919050565b60006020820190508181036000830152612580816121e7565b9050919050565b600060208201905081810360008301526125a08161220a565b9050919050565b600060208201905081810360008301526125c08161222d565b9050919050565b600060208201905081810360008301526125e081612250565b9050919050565b6000602082019050818103600083015261260081612273565b9050919050565b6000602082019050818103600083015261262081612296565b9050919050565b60006020820190508181036000830152612640816122b9565b9050919050565b60006020820190508181036000830152612660816122dc565b9050919050565b600060208201905061267c600083018461230e565b92915050565b6000604082019050612697600083018561230e565b6126a4602083018461230e565b9392505050565b60006126b56126c6565b90506126c18282612908565b919050565b6000604051905090565b600067ffffffffffffffff8211156126eb576126ea6129e0565b5b602082029050602081019050919050565b600067ffffffffffffffff821115612717576127166129e0565b5b602082029050602081019050919050565b600067ffffffffffffffff821115612743576127426129e0565b5b61274c82612a31565b9050602081019050919050565b6000819050602082019050919050565b600081519050919050565b600081519050919050565b600081519050919050565b6000602082019050919050565b600082825260208201905092915050565b600082825260208201905092915050565b600082825260208201905092915050565b60006127d58261288a565b91506127e08361288a565b9250827fffffffffffffffffffffffffffffffffffffffffffffffffffffffffffffffff0382111561281557612814612982565b5b828201905092915050565b600061282b8261286a565b9050919050565b60008115159050919050565b60007fffffffff0000000000000000000000000000000000000000000000000000000082169050919050565b600073ffffffffffffffffffffffffffffffffffffffff82169050919050565b6000819050919050565b82818337600083830152505050565b60005b838110156128c15780820151818401526020810190506128a6565b838111156128d0576000848401525b50505050565b600060028204905060018216806128ee57607f821691505b60208210811415612902576129016129b1565b5b50919050565b61291182612a31565b810181811067ffffffffffffffff821117156129305761292f6129e0565b5b80604052505050565b60006129448261288a565b91507fffffffffffffffffffffffffffffffffffffffffffffffffffffffffffffffff82141561297757612976612982565b5b600182019050919050565b7f4e487b7100000000000000000000000000000000000000000000000000000000600052601160045260246000fd5b7f4e487b7100000000000000000000000000000000000000000000000000000000600052602260045260246000fd5b7f4e487b7100000000000000000000000000000000000000000000000000000000600052604160045260246000fd5b600060033d1115612a2e5760046000803e612a2b600051612a42565b90505b90565b6000601f19601f8301169050919050565b60008160e01c9050919050565b7f455243313135353a207472616e7366657220746f206e6f6e204552433131353560008201527f526563656976657220696d706c656d656e746572000000000000000000000000602082015250565b7f455243313135353a204552433131353552656365697665722072656a6563746560008201527f6420746f6b656e73000000000000000000000000000000000000000000000000602082015250565b7f455243313135353a2062616c616e636520717565727920666f7220746865207a60008201527f65726f2061646472657373000000000000000000000000000000000000000000602082015250565b7f4f776e61626c653a206e6577206f776e657220697320746865207a65726f206160008201527f6464726573730000000000000000000000000000000000000000000000000000602082015250565b7f455243313135353a2063616c6c6572206973206e6f74206f776e6572206e6f7260008201527f20617070726f7665640000000000000000000000000000000000000000000000602082015250565b7f455243313135353a207472616e7366657220746f20746865207a65726f20616460008201527f6472657373000000000000000000000000000000000000000000000000000000602082015250565b7f455243313135353a207472616e736665722063616c6c6572206973206e6f742060008201527f6f776e6572206e6f7220617070726f7665640000000000000000000000000000602082015250565b7f455243313135353a20696e73756666696369656e742062616c616e636520666f60008201527f72207472616e7366657200000000000000000000000000000000000000000000602082015250565b7f4f776e61626c653a2063616c6c6572206973206e6f7420746865206f776e6572600082015250565b7f455243313135353a2073657474696e6720617070726f76616c2073746174757360008201527f20666f722073656c660000000000000000000000000000000000000000000000602082015250565b7f455243313135353a206163636f756e747320616e6420696473206c656e67746860008201527f206d69736d617463680000000000000000000000000000000000000000000000602082015250565b7f455243313135353a2069647320616e6420616d6f756e7473206c656e6774682060008201527f6d69736d61746368000000000000000000000000000000000000000000000000602082015250565b7f455243313135353a206d696e7420746f20746865207a65726f2061646472657360008201527f7300000000000000000000000000000000000000000000000000000000000000602082015250565b600060443d1015612e3c57612ebf565b612e446126c6565b60043d036004823e80513d602482011167ffffffffffffffff82111715612e6c575050612ebf565b808201805167ffffffffffffffff811115612e8a5750505050612ebf565b80602083010160043d038501811115612ea7575050505050612ebf565b612eb682602001850186612908565b82955050505050505b90565b612ecb81612820565b8114612ed657600080fd5b50565b612ee281612832565b8114612eed57600080fd5b50565b612ef98161283e565b8114612f0457600080fd5b50565b612f108161288a565b8114612f1b57600080fd5b5056fea26469706673582212208cb3080ab3ef0809395936ac5a0a2fd12296e9fc25adbc16c0925fa61c7192b864736f6c6343000804003368747470733a2f2f6e66696c65742e6578616d706c652f6170692f6974656d2f7b69647d2e6a736f6e",
  "linkReferences": {},
  "deployedLinkReferences": {}
}